:020000040800F2
:100000000050002005200008210F0008230F0008E1
:10001000250F0008270F0008290F00080000000026
:100020000000000000000000000000002B0F00088E
:100030002D0F0008000000002F0F0008310F0008EE
:100040004D2000084D2000084D2000084D200008DC
:100050004D2000084D2000084D200008390F0008F1
:10006000430F00084D0F00084D2000084D200008E8
:100070004D2000084D2000084D2000084D200008AC
:100080004D2000084D2000084D2000084D2000089C
:100090004D2000084D2000084D2000084D2000088C
:1000A0004D200008590F00084D2000084D20000881
:1000B0004D2000084D2000084D2000084D2000086C
:1000C0004D2000084D2000084D2000084D2000085C
:1000D0004D2000084D2000084D2000084D2000084C
:1000E0004D2000084D2000084D20000800000000B1
:1000F0000000000000000000000000000000000000
:0C01000000000000000000005FF808F1A3
:10010C0010B5054C237833B9044B13B10448AFF345
:10011C0000800123237010BD70000020000000003F
:10012C002829000808B5034B1BB103490348AFF35A
:10013C00008008BD00000000740000202829000881
:10014C0080F0004002E000BF81F0004142001FBF80
:10015C005FEA410392EA030F7FEA226C7FEA236C89
:10016C006AD04FEA1262D2EB1363C1BFD21841407E
:10017C0048404140B8BF5B42192B88BF704710F014
:10018C00004F40F4000020F07F4018BF404211F0B7
:10019C00004F41F4000121F07F4118BF494292EA1F
:1001AC00030F3FD0A2F1010241FA03FC10EB0C004B
:1001BC00C3F1200301FA03F100F0004302D54942D8
:1001CC0060EB4000B0F5000F13D3B0F1807F06D385
:1001DC0040084FEA310102F10102FE2A51D2B1F17D
:1001EC00004F40EBC25008BF20F0010040EA030072
:1001FC007047490040EB0000013A28BFB0F5000FF2
:10020C00EDD2B0FA80FCACF1080CB2EB0C0200FAA7
:10021C000CF0AABF00EBC25052421843BCBFD040F6
:10022C001843704792F0000F81F4000106BF80F470
:10023C0000000132013BB5E74FEA41037FEA226C33
:10024C0018BF7FEA236C21D092EA030F04D092F0FE
:10025C00000F08BF0846704790EA010F1CBF002032
:10026C00704712F07F4F04D1400028BF40F000408F
:10027C00704712F100723CBF00F50000704700F0AF
:10028C00004343F0FE4040F4000070477FEA2262D6
:10029C0016BF08467FEA23630146420206BF5FEAA7
:1002AC00412390EA010F40F4800070474FF00003A7
:1002BC0004E000BF10F0004348BF40425FEA000C6E
:1002CC0008BF704743F0964301464FF000001CE016
:1002DC0050EA010208BF70474FF000030AE000BF6C
:1002EC0050EA010208BF704711F0004302D54042AA
:1002FC0061EB41015FEA010C02BF8446014600201C
:10030C0043F0B64308BFA3F18053A3F50003BCFA36
:10031C008CF2083AA3EBC25310DB01FA02FC6344E3
:10032C0000FA02FCC2F12002BCF1004F20FA02F2EA
:10033C0043EB020008BF20F00100704702F12002DD
:10034C0001FA02FCC2F1200250EA4C0021FA02F23E
:10035C0043EB020008BF20EADC7070474FF0FF0C43
:10036C001CEAD0521EBF1CEAD15392EA0C0F93EA3E
:10037C000C0F6FD01A4480EA010C400218BF5FEAE0
:10038C0041211ED04FF0006343EA501043EA511153
:10039C00A0FB01310CF00040B1F5000F3EBF49004D
:1003AC0041EAD3715B0040EA010062F17F02FD2A51
:1003BC001DD8B3F1004F40EBC25008BF20F0010034
:1003CC00704790F0000F0CF0004C08BF49024CEA4B
:1003DC00502040EA51207F3AC2BFD2F1FF0340EADD
:1003EC00C250704740F400004FF00003013A5DDC4E
:1003FC0012F1190FDCBF00F000407047C2F100028F
:10040C00410021FA02F1C2F1200200FA02FC5FEA7B
:10041C00310040F1000053EA4C0308BF20EADC70C5
:10042C00704792F0000F00F0004C02BF400010F437
:10043C00000F013AF9D040EA0C0093F0000F01F0E4
:10044C00004C02BF490011F4000F013BF9D041EA06
:10045C000C018FE70CEAD15392EA0C0F18BF93EA08
:10046C000C0F0AD030F0004C18BF31F0004CD8D132
:10047C0080EA010000F00040704790F0000F17BFB9
:10048C0090F0004F084691F0000F91F0004F14D0FF
:10049C0092EA0C0F01D142020FD193EA0C0F03D157
:1004AC004B0218BF084608D180EA010000F000405A
:1004BC0040F0FE4040F40000704740F0FE4040F435
:1004CC00400070474FF0FF0C1CEAD0521EBF1CEAD4
:1004DC00D15392EA0C0F93EA0C0F69D0A2EB0302F2
:1004EC0080EA010C49024FEA402037D04FF080538C
:1004FC0043EA111143EA10130CF000408B4238BF51
:10050C005B0042F17D024FF4000C8B4224BF5B1A5E
:10051C0040EA0C00B3EB510F24BFA3EB510340EAAC
:10052C005C00B3EB910F24BFA3EB910340EA9C005A
:10053C00B3EBD10F24BFA3EBD10340EADC001B01CA
:10054C0018BF5FEA1C1CE0D1FD2A3FF650AF8B426E
:10055C0040EBC25008BF20F0010070470CF0004C7B
:10056C004CEA50207F32C2BFD2F1FF0340EAC250A6
:10057C00704740F400004FF00003013A37E792F067
:10058C00000F00F0004C02BF400010F4000F013AC5
:10059C00F9D040EA0C0093F0000F01F0004C02BFC0
:1005AC00490011F4000F013BF9D041EA0C0195E729
:1005BC000CEAD15392EA0C0F08D142027FF47DAFC2
:1005CC0093EA0C0F7FF470AF084676E793EA0C0FB2
:1005DC0004D14B023FF44CAF08466EE730F0004CB0
:1005EC0018BF31F0004CCAD130F000427FF45CAF40
:1005FC0031F000437FF43CAF5FE700BF42000ED206
:10060C00B2F1FE4F0BD34FF09E03B3EB126209D441
:10061C004FEA002343F0004323FA02F070474FF0F7
:10062C000000704712F1610F01D1420202D14FF06C
:10063C00FF3070474FF00000704700BF10B5064CFC
:10064C0001228021204601F066FB01224021204638
:10065C0001F061FB10BD00BF000C014010B50B4C4C
:10066C0001228021204601F056FB01224021204628
:10067C0001F051FB00228021204601F04CFB0022AE
:10068C004021204601F047FB10BD00BF000C01408B
:10069C0010B5084C00228021204601F03CFB0122C1
:1006AC004021204601F037FB01228021204601F039
:1006BC0032FB10BD000C014010B50B4C0022802108
:1006CC00204601F028FB01224021204601F023FBAB
:1006DC0000224021204601F01EFB012280212046F1
:1006EC0001F019FB10BD00BF000C014010B50B4C04
:1006FC0001228021204601F00EFB012240212046E0
:10070C0001F009FB00224021204601F004FB0022ED
:10071C008021204601F0FFFA10BD00BF000C014003
:10072C0038B5104C01228021204601F0F4FA012248
:10073C004021204601F0EFFA00248021094801F005
:10074C00E3FA054638B10134E4B2FA2CF5D9FFF7D7
:10075C009FFF012504E000224021024801F0DBFA52
:10076C00284638BD000C014070B5044600224021DB
:10077C00124801F0D0FA002513E0012280210F4825
:10078C0001F0C9FA6400E4B20C4E0122402130465B
:10079C0001F0C1FA00224021304601F0BCFA0135CB
:1007AC00EDB2072D08D814F0800FE6D1002280217D
:1007BC00024801F0B0FAE5E770BD00BF000C014043
:1007CC00F8B507460024254606E0002240210F48D4
:1007DC0001F0A1FA0134E4B2072C0ED80B4E012221
:1007EC004021304601F097FA6D00EDB2B36813F07A
:1007FC00800FEAD045F00105E7E71FB9FFF776FF58
:10080C002846F8BDFFF758FFFAE700BF000C01407F
:10081C0038B505460C46FFF721FF2846FFF7A4FF25
:10082C00FFF77EFF2046FFF79FFFFFF779FFFFF7EB
:10083C002FFF38BD70B506460D461446FFF70EFF68
:10084C003046FFF791FFFFF76BFF2846FFF78CFF51
:10085C00FFF766FF200AFFF787FFFFF761FFE0B2A3
:10086C00FFF782FFFFF75CFFFFF712FF70BD10B5BB
:10087C000446FFF7F3FE601CC0B2FFF775FFFFF7ED
:10088C004FFF0120FFF79CFF84B22402A4B200208A
:10089C00FFF796FF80B20443FFF7FAFE204610BD27
:1008AC0010B504460421FFF7B3FF2046FFF7DFFF26
:1008BC0010F4004F00D110BD404280B2FBE70000A5
:1008CC0010B50446FF21FFF7A3FF2046FFF7CFFF2B
:1008DC00014B586110BD00BF9C00002008B5FFF70C
:1008EC00ADFE4FF4004200218020FFF7A3FF44F639
:1008FC004F0200218020FFF79DFF4FF4E472052189
:10090C008020FFF797FF8020FFF7DAFF08BD10B5B6
:10091C0004460221FFF77CFF2046FFF7A8FF10BD1D
:10092C0010B504460121FFF773FF2046FFF79FFF28
:10093C0003B2002B01DB98B210BD404203B2FAE7C0
:10094C0010B504468020FFF7E2FFFFF7B3FC024925
:10095C00FFF704FD206010BD0000A03F10B5044659
:10096C008020FFF7DDFFFFF7A5FC0249FFF7F6FC3F
:10097C00206010BD0000204010B504468020FFF719
:10098C008FFFFFF797FC206010BD10B504460321C4
:10099C00FFF73EFF2046FFF76AFF10BD10B5044677
:1009AC008020FFF7F2FF00EB800000EB8000FFF7E8
:1009BC0081FC206010BD000010B50D4C2046FFF7E7
:1009CC00BFFF201DFFF7CAFF04F10800FFF7D4FF9B
:1009DC0004F11000FFF7E2FF06492068FFF7BEFCA8
:1009EC00A168FFF7BBFC0349FFF7B8FCE06010BD42
:1009FC009C0000206F12833A10B50B4C0122402151
:100A0C00204601F088F901228021204601F083F96B
:100A1C0000228021204601F07EF900224021204650
:100A2C0001F079F910BD00BF000C014010B5084C65
:100A3C0001224021204601F06EF90022802120463F
:100A4C0001F069F901228021204601F064F910BD02
:100A5C00000C014010B5064C01224021204601F04B
:100A6C005AF900224021204601F055F910BD00BF73
:100A7C00000C014070B5044600224021124801F0E0
:100A8C004AF9002513E0012280210F4801F043F9B7
:100A9C006400E4B20C4E01224021304601F03BF9D7
:100AAC0000224021304601F036F90135EDB2072D18
:100ABC0008D814F0800FE6D100228021024801F002
:100ACC002AF9E5E770BD00BF000C014010B50446E3
:100ADC00FFF792FF7820FFF7CDFFFFF7BBFF002059
:100AEC00FFF7C8FFFFF7B6FF2046FFF7C3FFFFF77E
:100AFC00B1FFFFF79BFF10BD10B50446FFF77CFF5D
:100B0C007820FFF7B7FFFFF7A5FF4020FFF7B2FFF4
:100B1C00FFF7A0FF2046FFF7ADFFFFF79BFFFFF7A6
:100B2C0085FF10BD08B519B1C0B2FFF7E5FF08BDD0
:100B3C00C0B2FFF7CBFFFAE710B504460846002118
:100B4C00B030FFF7EFFF2009002140F01000FFF755
:100B5C00E9FF002104F00F00FFF7E4FF10BD38B5EA
:100B6C00002501E00135EDB2072D17D8002105F164
:100B7C00B000FFF7D7FF00210846FFF7D3FF002195
:100B8C001020FFF7CFFF002414F0800FEAD10121D1
:100B9C000020FFF7C7FF0134E4B2F5E738BD0000D1
:100BAC00F8B507460E46203AD5B210F0800F14D196
:100BBC00102B16D031463846FFF7BEFF0024052C0B
:100BCC0033D805EB4503194A02EB43030121185DA9
:100BDC00FFF7A8FF0134E4B2F1E70236F6B20027C2
:100BEC00E6E731463846FFF7A7FF002408E004EBA0
:100BFC00051301210E4AD05CFFF794FF0134E4B2D7
:100C0C00072CF4D9711CC9B23846FFF795FF0024A4
:100C1C0009E004EB051308330121054AD05CFFF70A
:100C2C0081FF0134E4B2072CF3D9F8BD4029000848
:100C3C00682B00082DE9F04104460E4617469846ED
:100C4C00002501E00135EDB27A5D62B143463146D3
:100C5C002046FFF7A5FF0834E4B2782CF2D902360F
:100C6C00F6B20024EEE7BDE8F08108B50A2000F0EA
:100C7C001DFC0021AE20FFF755FF00210846FFF7B1
:100C8C0051FF00211020FFF74DFF00214020FFF7FE
:100C9C0049FF0021B020FFF745FF00218120FFF71D
:100CAC0041FF0021FF20FFF73DFF0021A120FFF7AE
:100CBC0039FF0021A620FFF735FF0021A820FFF700
:100CCC0031FF00213F20FFF72DFF0021C820FFF747
:100CDC0029FF0021D320FFF725FF00210846FFF74D
:100CEC0021FF0021D520FFF71DFF00218020FFF7F9
:100CFC0019FF0021D820FFF715FF00210520FFF771
:100D0C0011FF0021D920FFF70DFF0021F120FFF783
:100D1C0009FF0021DA20FFF705FF00211220FFF761
:100D2C0001FF0021DB20FFF7FDFE00213020FFF743
:100D3C00F9FE00218D20FFF7F5FE00211420FFF7AE
:100D4C00F1FE0021AF20FFF7EDFE08BD72B6FEE705
:100D5C0000B591B0002309930B930C93019302936C
:100D6C00039304930593012106914FF4803207926B
:100D7C0008930A9102230D930E924FF4E0130F93F4
:100D8C0006A800F0BDFB80B90F230193022102914C
:100D9C00002303934FF480620492059301A800F0A2
:100DAC00EDFD20B911B05DF804FBFFF7CFFFFFF7A5
:100DBC00CDFF000008B500F055FBFFF7C9FF00F0B0
:100DCC003FF801F0BFF8FFF789FDFFF74EFFFFF783
:100DDC00C6FE024800F016F9FEE700BFF400002042
:100DEC0010B50446022804D0042C0CD0082C14D0C6
:100DFC0010BD02210E4800F087FF0028F4D10D4BE6
:100E0C0001221A70F0E70421094800F07DFF002848
:100E1C00ECD1094B01221A70E8E70821044800F0D4
:100E2C0073FF0028E4D1054B01221A70E0E700BFE4
:100E3C00000801408C0000208D0000208E00002056
:100E4C0070B588B0002504950595069507952D4B32
:100E5C009A6942F010029A619A6902F010020092AB
:100E6C00009A9A6942F020029A619A6902F0200273
:100E7C000192019A9A6942F004029A619A6902F00D
:100E8C0004020292029A9A6942F008029A619B69E2
:100E9C0003F008030393039B1B4E01224FF486516E
:100EAC00304600F038FF0E230493184B05930124B1
:100EBC00069404A9164800F017FE4FF486530493C9
:100ECC00059406950323079304A9304600F00CFE05
:100EDC0022462146072000F045FF072000F076FF50
:100EEC0022462146082000F03DFF082000F06EFF4E
:100EFC0022462146092000F035FF092000F066FF4C
:100F0C0008B070BD00100240000C01400000211020
:100F1C0000080140FEE7FEE7FEE7FEE7FEE770474C
:100F2C007047704708B500F0AFFA08BD08B502204D
:100F3C0000F0F8FE08BD08B5042000F0F3FE08BD73
:100F4C0008B5082000F0EEFE08BD000008B5024808
:100F5C0000F090F808BD00BFF400002000B583B08D
:100F6C000F4B9A6942F001029A619A6902F00102F0
:100F7C000092009ADA6942F08052DA61DB6903F080
:100F8C0080530193019B052000F0DAFE054A53685B
:100F9C0023F0E06343F00073536003B05DF804FB8F
:100FAC00001002400000014030B4036A056A25F0CD
:100FBC0001050562846924F0F00444EA021423F06C
:100FCC000A030B438461036230BC704730B4056A7A
:100FDC0025F0100505628469036A24F4704444EA20
:100FEC00023423F0A00343EA01138461036230BC92
:100FFC007047836823F070030B4343F0070383604F
:10100C007047000090F83D30DBB2012B27D1022352
:10101C0080F83D300268D36843F00103D360036865
:10102C00114A934210D0B3F1804F0DD0A2F59432F7
:10103C00934209D002F58062934205D01A6842F0BF
:10104C0001021A60002070479A6802F00702062A13
:10105C0007D01A6842F001021A6000207047012084
:10106C0070470020704700BF002C0140704770474C
:10107C007047704710B5044603681A6912F0020FE6
:10108C0011D0DA6812F0020F0DD06FF002021A6163
:10109C000123037703689B6913F0030F70D0FFF7EC
:1010AC00E6FF0023237723681A6912F0040F12D08D
:1010BC00DA6812F0040F0ED06FF004021A610223EA
:1010CC00237723689B6913F4407F5FD02046FFF79A
:1010DC00CEFF0023237723681A6912F0080F12D071
:1010EC00DA6812F0080F0ED06FF008021A610423B0
:1010FC0023772368DB6913F0030F4ED02046FFF7EC
:10110C00B6FF0023237723681A6912F0100F12D050
:10111C00DA6812F0100F0ED06FF010021A6108236B
:10112C0023772368DB6913F4407F3DD02046FFF71B
:10113C009EFF0023237723681A6912F0010F03D056
:10114C00DA6812F0010F36D123681A6912F0800F99
:10115C0003D0DA6812F0800F34D123681A6912F0C8
:10116C00400F03D0DA6812F0400F32D123681A69AD
:10117C0012F0200F03D0DA6812F0200F30D110BD1E
:10118C00FFF774FF2046FFF773FF8AE72046FFF74F
:10119C006DFF2046FFF76CFF9BE72046FFF766FFCD
:1011AC002046FFF765FFACE72046FFF75FFF2046C0
:1011BC00FFF75EFFBDE76FF001021A61204600F0F9
:1011CC00B5FEC1E76FF080021A61204600F023F9EA
:1011DC00C3E76FF040021A612046FFF74AFFC5E7EC
:1011EC006FF020021A61204600F014F9C7E70000E6
:1011FC0003681B4A90420AD0B0F1804F07D0A2F589
:10120C009432904203D002F58062904203D123F0D5
:10121C0070034A681343124A90420AD0B0F1804FCF
:10122C0007D0A2F59432904203D002F5806290422E
:10123C0003D123F44073CA68134323F080034A6933
:10124C00134303608B68C3620B688362044B984240
:10125C0002D00123436170470B690363F9E700BFB8
:10126C00002C014040B310B5044690F83D30F3B16A
:10127C00022384F83D30214651F8040BFFF7B8FFE8
:10128C00012384F8463084F83E3084F83F3084F8EB
:10129C00403084F8413084F8423084F8433084F88C
:1012AC00443084F8453084F83D30002010BD80F87F
:1012BC003C3000F081FEDBE70120704710B48468FD
:1012CC0024F47F4442EA03220A432243826010BC86
:1012DC00704790F83C30012B66D010B504460123C2
:1012EC0080F83C30022380F83D300268936823F488
:1012FC007F4323F0770393600B68602B40D022D898
:10130C00402B47D00BD9502B0ED1CA6849680068C6
:10131C00FFF74AFE50212068FFF76BFE04E0202BFC
:10132C000CD008D9302B09D0012384F83D30002093
:10133C0084F83C0010BD0BB1102BF5D11946206878
:10134C00FFF757FEF0E7702B0ED0B3F5005FEBD133
:10135C00CB684A6889680068FFF7B0FF2268936819
:10136C0043F480439360DFE7CB684A688968006880
:10137C00FFF7A4FF2268936843F077039360D3E7E9
:10138C00CA6849680068FFF721FE60212068FFF7F2
:10139C0030FEC9E7CA6849680068FFF705FE4021BE
:1013AC002068FFF726FEBFE70220704790F83C301C
:1013BC00012B2BD030B4012380F83C30022380F871
:1013CC003D3003685C689D6824F070040A68224311
:1013DC005A6003680E4A93420AD0B3F1804F07D08B
:1013EC00A2F59432934203D002F58062934204D169
:1013FC0025F080054A6815439D60012380F83D3037
:10140C00002380F83C30184630BC704702207047EF
:10141C00002C01407047704710B504460E4B1878ED
:10142C004FF47A73B3FBF0F30C4A1068B0FBF3F093
:10143C0000F0DAFC68B90F2C01D901200AE0002277
:10144C0021464FF0FF3000F08DFC054B1C60002056
:10145C0000E0012010BD00BF0000002008000020AB
:10146C000400002008B5074A136843F0100313600A
:10147C00032000F065FC0020FFF7CEFFFFF76EFDA8
:10148C00002008BD00200240034A1168034B1B7862
:10149C000B441360704700BFB40000200000002014
:1014AC00014B1868704700BFB400002038B50446E3
:1014BC00FFF7F6FF0546B4F1FF3F02D0044B1B7853
:1014CC001C44FFF7EDFF401BA042FAD338BD00BF10
:1014DC000000002082B0084B1B68084AA2FB0323C3
:1014EC005B0A00FB03F3019300BF019B5A1E0192A0
:1014FC00002BF9D102B0704708000020D34D6210C8
:10150C00002800F0F18170B582B00446036813F036
:10151C00010F2CD0AA4B5B6803F00C03042B1DD0DD
:10152C00A74B5B6803F00C03082B12D06368B3F570
:10153C00803F41D0002B55D103F1804303F5043398
:10154C001A6822F480321A601A6822F480221A6017
:10155C0037E09B4B5B6813F4803FE7D0984B1B68DC
:10156C0013F4003F03D06368002B00F0BF812368A5
:10157C0013F0020F75D0924B5B6813F00C0F5FD019
:10158C008F4B5B6803F00C03082B54D02369002BA2
:10159C0000F089808B4B01221A60FFF781FF054612
:1015AC00874B1B6813F0020F74D1FFF779FF401BB8
:1015BC000228F5D903209EE1814A136843F4803355
:1015CC001360636843B3FFF76BFF05467C4B1B68E6
:1015DC0013F4003FCBD1FFF763FF401B6428F5D910
:1015EC00032088E1B3F5A02F09D0754B1A6822F4BB
:1015FC0080321A601A6822F480221A60E1E703F143
:10160C008043A3F53C331A6842F480221A601A68AE
:10161C0042F480321A60D4E7FFF742FF0546684B6C
:10162C001B6813F4003FA2D0FFF73AFF401B64285D
:10163C00F5D903205FE1624B5B6813F4803FA5D1C1
:10164C005F4B1B6813F0020F03D02369012B40F092
:10165C004F815B4A136823F0F803616943EAC103C5
:10166C001360236813F0080F32D0A369002B45D008
:10167C00554B01221A60FFF713FF0546504B5B6A6E
:10168C0013F0020F21D1FFF70BFF401B0228F5D9F5
:10169C00032030E14A4A136823F0F803616943EAF6
:1016AC00C1031360DDE7474B00221A60FFF7F8FE19
:1016BC000546434B1B6813F0020FD2D0FFF7F0FE28
:1016CC00401B0228F5D9032015E10120FFF702FF8A
:1016DC00236813F0040F00F09780394BDB6913F08B
:1016EC00805F1DD1364BDA6942F08052DA61DB69DA
:1016FC0003F080530193019B012512E0324B002231
:10170C001A60FFF7CDFE05462D4B5B6A13F0020FF6
:10171C00DED0FFF7C5FE401B0228F5D90320EAE016
:10172C0000252A4B1B6813F4807F11D0E368012B32
:10173C0022D0002B38D103F1804303F504331A6A0D
:10174C0022F001021A621A6A22F004021A6218E0EC
:10175C001E4A136843F480731360FFF7A1FE06461C
:10176C001A4B1B6813F4807FE0D1FFF799FE801BA6
:10177C006428F5D90320BEE0114A136A43F0010333
:10178C001362E36873B3FFF78BFE06460C4B1B6AC0
:10179C0013F0020F37D1FFF783FE801B41F2883321
:1017AC009842F3D90320A6E0052B11D0044B1A6AFA
:1017BC0022F001021A621A6A22F004021A62E0E7AD
:1017CC00001002400000424280044242007000407F
:1017DC004D4B1A6A42F004021A621A6A42F0010274
:1017EC001A62CEE7FFF75CFE0646474B1B6A13F006
:1017FC00020F08D0FFF754FE801B41F28833984249
:10180C00F3D9032077E0E5B9E369002B72D03E4AA7
:10181C00526802F00C02082A56D0022B17D03B4B10
:10182C0000221A60FFF73CFE0446374B1B6813F08E
:10183C00007F47D0FFF734FE001B0228F5D90320A8
:10184C0059E0314AD36923F08053D361DCE72F4B45
:10185C0000221A60FFF724FE05462B4B1B6813F081
:10186C00007F06D0FFF71CFE401B0228F5D9032091
:10187C0041E0236AB3F5803F1AD023494B6823F427
:10188C007413226A606A024313434B601F4B01229C
:10189C001A60FFF705FE04461B4B1B6813F0007F14
:1018AC000ED1FFF7FDFD001B0228F5D9032022E025
:1018BC00154A536823F40033A1680B435360DCE7EB
:1018CC00002018E0002016E0012B16D00E4B5B68B0
:1018DC0003F48031226A914211D103F47013626ACD
:1018EC0093420ED1002006E001207047012002E057
:1018FC00012000E0002002B070BD0120FBE70120B8
:10190C00F9E70120F7E700BF0010024060004242F7
:10191C0086B0164B0FCB0DF1180C0CE90F0040F2F2
:10192C000123ADF80430124B5B6803F00C02082A5B
:10193C0002D0104806B07047C3F38342624412F8D9
:10194C00102C13F4803F0CD0094B5B68C3F340435D
:10195C00634413F8143C074800FB02F0B0FBF3F0AF
:10196C00E8E7054800FB02F0E4E700BF5831000847
:10197C000010024000127A0000093D00002800F01F
:10198C00A08070B50D460446524B1B6803F007034C
:10199C008B420BD24F4A136823F007030B4313609F
:1019AC00136803F007038B4240F08D80236813F01B
:1019BC00020F17D013F0040F04D0474A536843F4B6
:1019CC00E0635360236813F0080F04D0424A536855
:1019DC0043F460535360404A536823F0F003A1680A
:1019EC000B435360236813F0010F31D06368012B54
:1019FC0020D0022B25D0384A126812F0020F64D086
:101A0C0035494A6822F0030213434B60FFF748FD47
:101A1C000646314B5B6803F00C036268B3EB820F34
:101A2C0016D0FFF73DFD801B41F288339842F0D968
:101A3C00032045E0284A126812F4003FE0D101204F
:101A4C003EE0254A126812F0007FD9D1012037E020
:101A5C00204B1B6803F00703AB420AD91D4A1368DD
:101A6C0023F007032B431360136803F00703AB4207
:101A7C002DD1236813F0040F06D0174A536823F4B2
:101A8C00E063E1680B435360236813F0080F07D041
:101A9C00114A536823F46053216943EAC10353602C
:101AAC00FFF736FF0C4B5B68C3F303130B4AD35C95
:101ABC00D8400B4B18600B4B1868FFF7ADFC00209F
:101ACC0070BD012070470120FAE70120F8E70120E2
:101ADC00F6E700BF00200240001002406C31000805
:101AEC000800002004000020F0B482B000252C4631
:101AFC00A3E07F4FBB4210D007D97E4FBB420CD026
:101B0C0007F58037BB4208D013E0A7F58017BB421E
:101B1C0003D007F57027BB4207D18B68002B58D038
:101B2C00012B51D04261082503E0A7F58017BB4279
:101B3C00F3D0FF2E4FD88446FF2E4FD8A200DCF8EE
:101B4C0000300F27974023EA070305FA02F21343EC
:101B5C00CCF800304B6813F0805F6DD0664B9A69FF
:101B6C0042F001029A619B6903F001030193019B0E
:101B7C00A208971C614B53F8273004F00307BF00F1
:101B8C004FF00F0C0CFA07FC23EA0C0C5C4B984240
:101B9C002AD003F58063984200F08A8003F58063B5
:101BAC00984200F0878003F5806398421AD0042392
:101BBC001BE0CD68BDE7CD680435BAE7CD680835C4
:101BCC00B7E7CD680C35B4E702610825B1E700250D
:101BDC00AFE70425ADE700F1040CADE7A4F1080272
:101BEC009200ACE7032300E00023BB4043EA0C0364
:101BFC000232424F47F822304B6813F4803F5BD0DF
:101C0C00404A1368334313604B6813F4003F59D0B8
:101C1C003C4A5368334353604B6813F4801F57D0CE
:101C2C00384A9368334393604B6813F4001F55D0C4
:101C3C00344AD3681E43D66001340B6833FA04F27D
:101C4C0052D00122A24003EA020632EA0303F3D186
:101C5C004B68122B3FF64DAF122B3FF66AAF01A724
:101C6C0057F823F0271B0008BF1B0008C91B0008EE
:101C7C00DB1B00083F1B00083F1B00083F1B000834
:101C8C003F1B00083F1B00083F1B00083F1B0008C0
:101C9C003F1B00083F1B00083F1B00083F1B0008B0
:101CAC003F1B00083F1B0008C31B0008CF1B00088C
:101CBC0001239AE7022398E7124A136823EA0603E2
:101CCC001360A1E70F4A536823EA06035360A3E7A6
:101CDC000C4A936823EA06039360A5E7094AD36884
:101CEC0023EA0606D660A7E702B0F0BC704700BF37
:101CFC0000002210000031100010024000000140D2
:101D0C0000080140000401408368194201D0012001
:101D1C007047002070470AB10161704709040161E6
:101D2C007047000008B5054B5B69034200D108BD44
:101D3C00024B5861FFF754F8F9E700BF000401406B
:101D4C00074AD36823F4E0631B041B0C000200F465
:101D5C00E060034343F0BF6343F40033D360704748
:101D6C0000ED00E030B4174BDB68C3F30223C3F182
:101D7C000704042C28BF04241D1D062D18D9033B71
:101D8C004FF0FF3505FA04F421EA0401994005FAF5
:101D9C0003F322EA0303194300280BDB0901C9B240
:101DAC0000F1604000F5614080F8001330BC7047D2
:101DBC000023E5E700F00F000901C9B2024B1954EA
:101DCC00F4E700BF00ED00E014ED00E0002807DBB5
:101DDC0000F01F02400901239340024A42F82030D0
:101DEC00704700BF00E100E00138B0F1807F0AD2FB
:101DFC00064B5860064AF02182F8231000209860A8
:101E0C0007221A6070470120704700BF10E000E005
:101E1C0000ED00E0704700002DE9F843FEF7CCFD23
:101E2C00294C2A492068FEF74DFB0546FEF7E6FBD8
:101E3C0086B23046FEF73EFA01462846FEF784F994
:101E4C002249FEF78BFAFEF7D9FB1FFA80F91F49DE
:101E5C00A068FEF737FB0746FEF7D0FB85B2284695
:101E6C00FEF728FA01463846FEF76EF91749FEF7D9
:101E7C0075FAFEF7C3FB1FFA80F8E7683846FEF7E1
:101E8C00BDFB84B22046FEF715FA01463846FEF734
:101E9C005BF90E49FEF762FAFEF7B0FB87B24B46D0
:101EAC0032460B490B4800F0F1F843462A460A49E2
:101EBC000A4800F0EBF83B4622460949094800F075
:101ECC00E5F8BDE8F88300BF9C00002000007A44D0
:101EDC007C310008B800002090310008E0000020A0
:101EEC00A4310008CC00002008B510230B4A0021B7
:101EFC002820FEF79FFE1023094A02210020FEF73E
:101F0C0099FE1023074A04210020FEF793FE1023AC
:101F1C00054A06210020FEF78DFE08BDB8310008E9
:101F2C00B8000020E0000020CC00002008B5044BD5
:101F3C00834200D008BDFFF76FFFFFF7D5FFF9E72D
:101F4C00F400002000B587B00023029303930493A0
:101F5C000593009301931648164A026040F2CF2273
:101F6C004260836040F2E732C260036143618023C8
:101F7C008361FFF777F990B94FF48053029302A96C
:101F8C000B48FFF7A6F968B9002300930193694643
:101F9C000748FFF70BFA40B907B05DF804FBFEF7F2
:101FAC00D5FEE9E7FEF7D2FEEEE7FEF7CFFEF3E74C
:101FBC00F4000020002C014002680E4B9A4200D025
:101FCC00704700B583B003F564439A6942F400622C
:101FDC009A619B6903F400630193019B0122022126
:101FEC001920FFF7BFFE1920FFF7F0FE03B05DF8D4
:101FFC0004FB00BF002C0140002103E00B4B5B589D
:10200C00435004310A480B4B42189A42F6D30A4A01
:10201C0002E0002342F8043B084B9A42F9D3FFF745
:10202C00F9FE00F00FF8FEF7C5FE7047FC31000812
:10203C000000002070000020700000204C010020E7
:10204C00FEE7000070B500260C4D0D4C641BA4106F
:10205C00A64209D100F062FC00260A4D0A4C641B12
:10206C00A410A64205D170BD55F8043B9847013623
:10207C00EEE755F8043B98470136F2E7F4310008D7
:10208C00F4310008F4310008F83100080EB46FF098
:10209C00004100B59CB01DAB0290069007910491D5
:1020AC000848094953F8042B0591006802A90193CB
:1020BC0000F068F80022029B1A701CB05DF804EB6B
:1020CC0003B070470C0000200802FFFF2DE9F04719
:1020DC008E6882469E420C4690461F4638D88A89A6
:1020EC0012F4906F32D0256809690133A5EB010910
:1020FC0065694B4405EB450505EBD5756D109D42A7
:10210C0038BF1D46530531D5294600F053FB064612
:10211C0050B90C234FF0FF30CAF80030A38943F0BC
:10212C004003A381BDE8F0874A46216900F0CEFA4E
:10213C00A38923F4906343F08003A38126614E446A
:10214C0026603E466561A5EB0905A560BE4200D937
:10215C003E4632464146206800F0C6FAA368226823
:10216C009B1B32440020A3602260DBE72A4600F070
:10217C007BFB06460028E1D15046216900F0CEFADF
:10218C00C7E700002DE9F04F98468B8907461B06E0
:10219C000D4614469DB00ED50B6963B9402100F075
:1021AC0009FB2860286120B90C233B604FF0FF30FD
:1021BC00D1E040236B610023099320238DF8293053
:1021CC0030234FF00109CDF80C80DFF8A4818DF895
:1021DC002A3023469A4613F8012B0AB1252AF9D145
:1021EC00BAEB040B0BD05B46224629463846FFF768
:1021FC006DFF013000F0AA80099A5A4409929AF8AE
:10220C000030002B00F0A28000234FF0FF32CDE90C
:10221C0005230AF1010A049307938DF853301A939E
:10222C005446052214F8011B514800F041FA049A57
:10223C00D8B9D00644BF20238DF85330110744BFC2
:10224C002B238DF853309AF800302A2B15D0544696
:10225C0000204FF00A0C079A214611F8013B303B45
:10226C00092B4ED9B0B1079214E0A0EB080309FA80
:10227C0003F31343A2460493D2E7039B191D1B6877
:10228C000391002BBBBF5B4242F002020793079302
:10229C00B8BF049223782E2B0CD163782A2B35D11E
:1022AC00039B02341A1D1B680392002BB8BF4FF01E
:1022BC00FF330593DFF8C8A003225046217800F0C5
:1022CC00F7F940B14023A0EB0A0003FA00F0049B9D
:1022DC0001340343049314F8011B062225488DF89E
:1022EC00281000F0E5F9002838D0234B1BBB039BCA
:1022FC00073323F0070308330393099B33440993F3
:10230C0067E70C4601200CFB0232A5E700234FF0D7
:10231C000A0C194601340593204610F8012B303A6B
:10232C00092A03D9002BC5D00591C3E70446012324
:10233C000CFB0121F0E703AB00932A4638460F4B08
:10234C0004A9AFF30080421C0646D6D1AB895B06CC
:10235C003FF52CAF09981DB0BDE8F08F03AB00938F
:10236C002A463846054B04A900F07CF8EBE700BF81
:10237C00C0310008CA31000800000000D920000854
:10238C00C63100082DE9F047164699468A680B6954
:10239C0007469342B8BF1346336091F843200C466E
:1023AC00DDF820800AB1013333602368990642BFFF
:1023BC00336802333360256815F0060506D104F145
:1023CC00190AE36832689B1AAB4228DC94F8432064
:1023DC00131E226818BF012392062DD44946384695
:1023EC0004F14302C047013020D02368E56803F0B4
:1023FC000603042B18BF002532684FF00006A368B3
:10240C0008BFAD1A226908BF25EAE5759342C4BF1F
:10241C009B1AED181A34B5421AD1002008E001239A
:10242C00524649463846C047013003D14FF0FF3081
:10243C00BDE8F0870135C4E73020E11881F843008E
:10244C005A1C94F845102244023382F84310C5E715
:10245C000123224649463846C0470130E6D00136B2
:10246C00D9E700002DE9FF470C46277E9146782FCF
:10247C0080469A460C9904F1430207D8622F0AD879
:10248C00002F00F0D980582F00F0A48004F14206F0
:10249C0084F842703AE0A7F16303152BF6D801A03B
:1024AC0050F823F0092500081D2500089924000880
:1024BC009924000899240008992400081D25000877
:1024CC0099240008992400089924000899240008EC
:1024DC002B2600084D2500080D260008992400081D
:1024EC00992400084D260008992400084D25000861
:1024FC009924000899240008152600080B6804F19B
:10250C0042061A1D1B680A6084F842300123A4E0BD
:10251C00256808682E0600F104030AD505680B60CF
:10252C00002D03DA2D236D4284F843300A235E48D4
:10253C0019E015F0400F05680B6018BF2DB2EFE7DE
:10254C000B682568181D0860280601D51D6802E077
:10255C006906FBD51D886F2F0CBF08230A23524830
:10256C00002184F843106668002EA8BF2168A6607D
:10257C00A4BF21F0040121600DB9002E4DD01646E8
:10258C00B5FBF3F103FB1157C75D06F8017D2F4630
:10259C00BB420D46F4D9082B0BD12368DF0708D5B5
:1025AC00236961689942DEBF302306F8013C06F1CD
:1025BC00FF36921B22614B4621464046CDF800A0C7
:1025CC0003AAFFF7DFFE01304CD14FF0FF3004B00F
:1025DC00BDE8F087344884F845700E68236856F8D7
:1025EC00045B1F060E6014D5D90744BF43F02003CB
:1025FC0023601DB9236823F0200323601023AFE769
:10260C00236843F0200323607823284884F845305E
:10261C00E3E75E0648BFADB2E6E71646BBE70B68DC
:10262C0026681D1D60690D6035061B6801D5186094
:10263C0002E07106FBD51880002316462361BAE729
:10264C000B681A1D0A601E6800213046626800F093
:10265C002FF808B1801B606063682361002384F845
:10266C004330A8E73246494640462369D0470130FB
:10267C00ABD023689B0713D4E068039B9842B8BF88
:10268C001846A4E70123324649464046D04701305C
:10269C009BD00135E36803995B1AAB42F2DCEBE7A4
:1026AC00002504F11906F5E7D1310008E2310008E4
:1026BC00034610B5C9B202449342184601D100201A
:1026CC0003E0047801338C42F6D110BD0A449142E8
:1026DC0000F1FF3300D1704710B511F8014B914256
:1026EC0003F8014FF9D110BD884210B501EB02047B
:1026FC0002D98442234607D8431EA14208D011F8C0
:10270C00012B03F8012FF8E7014602448A4200D15D
:10271C0010BD13F8014D02F8014DF7E738B5054629
:10272C00002943D051F8043C0C1F002BB8BFE4180F
:10273C0000F0D0F81E4A1368104633B96360146079
:10274C002846BDE8384000F0CBB8A3420AD921682E
:10275C006218934201BF1A685B685218226063606A
:10276C000460EDE71A465B680BB1A342FAD9116815
:10277C005018A0420BD120680144501883421160BC
:10278C00DED118685B68014411605360D8E702D948
:10279C000C232B60D4E7206821188B4201BF1968E9
:1027AC005B680918216063605460C9E738BD00BFDD
:1027BC0090000020F8B5CD1C25F0030508350C2D34
:1027CC0038BF0C25002D064601DBA94203D90C238A
:1027DC0033600020F8BD00F07DF821490A681446EA
:1027EC009CB9204F3B6823B92146304600F062F873
:1027FC0038602946304600F05DF8431C23D10C2389
:10280C003046336000F06CF8E3E723685B1B17D4A9
:10281C000B2B03D923601C44256004E06368A2429F
:10282C000CBF0B605360304600F05AF804F10B00FB
:10283C00231D20F00700C21ACCD01B1AA350C9E7E5
:10284C0022466468CCE7C41C24F00304A042E3D005
:10285C00211A304600F02EF80130DDD1CFE700BF51
:10286C009000002094000020F8B5074614460E4650
:10287C0021B91146BDE8F840FFF79CBF22B9FFF71C
:10288C004DFF25462846F8BD00F030F8A0420FD287
:10289C0021463846FFF78EFF05460028F2D0314618
:1028AC002246FFF713FF31463846FFF737FFE9E7BB
:1028BC003546E7E738B50023054D044608462B603E
:1028CC0000F01EF8431C02D12B6803B1236038BD05
:1028DC003C010020014800F011B800BF4401002069
:1028EC00014800F00CB800BF4401002051F8043C32
:1028FC00181F002BBCBF0B58C0187047704770478F
:10290C00044A05491368002B08BF0B461844106095
:10291C00184670479800002050010020F8B500BF01
:10292C00F8BC08BC9E467047F8B500BFF8BC08BCA4
:04293C009E467047FC
:102940000000000000000000002F00000000070051
:10295000070000147F147F1400242A7F2A120062CB
:102960006408132300364955225000000503000077
:1029700000001C224100000041221C000014083EFF
:1029800008140008083E0808000000A060000008C5
:102990000808080800006060000000201008040219
:1029A000003E5149453E0000427F400000426151D7
:1029B0004946002141454B31001814127F10002771
:1029C00045454539003C4A49493000017109050334
:1029D00000364949493600064949291E0000363665
:1029E00000000000563600000008142241000014C8
:1029F00014141414000041221408000201510906A5
:102A000000324959513E007C1211127C007F494925
:102A10004936003E41414122007F4141221C007F56
:102A200049494941007F09090901003E4149497A64
:102A3000007F0808087F0000417F410000204041DE
:102A40003F01007F08142241007F40404040007F4A
:102A5000020C027F007F0408107F003E4141413E8E
:102A6000007F09090906003E4151215E007F0919D6
:102A700029460046494949310001017F0101003FD3
:102A80004040403F001F2040201F003F4038403F53
:102A900000631408146300070870080700615149B7
:102AA000454300007F41410000552A552A5500004A
:102AB00041417F00000402010204004040404040C8
:102AC000000001020400002054545478007F484460
:102AD000443800384444442000384444487F003897
:102AE0005454541800087E0901020018A4A4A47CC0
:102AF000007F080404780000447D4000004080848A
:102B00007D00007F102844000000417F4000007CD1
:102B100004180478007C08040478003844444438DD
:102B200000FC242424180018242418FC007C080429
:102B3000040800485454542000043F444020003C02
:102B40004040207C001C2040201C003C4030403C89
:102B5000004428102844001CA0A0A07C0044645419
:102B60004C4414141414141400000000000000005D
:102B70000000000000000000000000F8000000005D
:102B8000000000333000000000100C06100C06009E
:102B9000000000000000000040C07840C078400005
:102BA000043F04043F040400007088FC0830000067
:102BB000001820FF211E0000F008F000E0180000BF
:102BC00000211C031E211E0000F008887000000078
:102BD0001E2123241927211010160E0000000000CA
:102BE0000000000000000000000000E018040200E7
:102BF000000000071820400000020418E000000058
:102C00000040201807000000404080F08040400055
:102C10000202010F01020200000000F000000000AB
:102C20000101011F0101010000000000000000007F
:102C300080B07000000000000000000000000000F4
:102C4000000101010101010100000000000000007D
:102C50000030300000000000000000008060180418
:102C6000006018060100000000E010080810E000F5
:102C7000000F102020100F00001010F800000000BE
:102C80000020203F20200000007008080888700005
:102C90000030282422213000003008888848300085
:102CA0000018202020110E000000C02010F80000A5
:102CB00000070424243F240000F80888880808003E
:102CC0000019212020110E0000E010888818000053
:102CD000000F112020110E0000380808C838080025
:102CE0000000003F000000000070880808887000A5
:102CF000001C222121221C0000E010080810E00026
:102D00000000312222110F00000000C0C0000000AE
:102D100000000030300000000000008000000000D3
:102D200000008060000000000000804020100800CB
:102D30000001020408102000404040404040400094
:102D4000040404040404040000081020408000006F
:102D50000020100804020100007048080808F00074
:102D60000000003036010000C030C828E810E00044
:102D70000718272423140B000000C038E0000000CF
:102D8000203C23020227382008F888888870000039
:102D9000203F202020110E00C0300808080838000D
:102DA000071820202010080008F808080810E00084
:102DB000203F202020100F0008F88888E808100025
:102DC000203F20202320180008F88888E8081000F9
:102DD000203F200003000000C03008080838000031
:102DE00007182020221E020008F808000008F80832
:102DF000203F210101213F20000808F808080000B9
:102E00000020203F2020000000000808F8080800EB
:102E1000C08080807F00000008F888C02818080063
:102E2000203F20012638200008F80800000000009C
:102E3000203F20202020300008F8F800F8F8080093
:102E4000203F003F003F200008F830C00008F8088D
:102E5000203F200007183F00E01008080810E0009D
:102E60000F10202020100F0008F808080808F000B4
:102E7000203F210101010000E01008080810E000D7
:102E80000F18242438504F0008F88888888870006C
:102E9000203F2000030C302000708808080838000C
:102EA0000038202121221C00180808F80808180002
:102EB0000000203F2000000008F808000008F80883
:102EC000001F202020201F000878880000C8380834
:102ED000000007380E010000F80800F80008F800AC
:102EE000033C0700073C0300081868808068180846
:102EF00020302C03032C30200838C800C8380800C4
:102F00000000203F2000000010080808C838080012
:102F10002038262120201800000000FE02020200B6
:102F20000000007F40404000000C30C00000000066
:102F3000000000010638C00000020202FE0000008E
:102F4000004040407F000000000004020202040034
:102F50000000000000000000000000000000000071
:102F60008080808080808080000202040000000059
:102F70000000000000000000000080808080000051
:102F80000019242222223F2008F80080800000003F
:102F9000003F112020110E00000000808080000002
:102FA000000E112020201100000000808088F80011
:102FB000000E112020103F20000080808080000043
:102FC000001F222222221300008080F088888818A7
:102FD0000020203F202000000000808080808000B2
:102FE000006B94949493600008F800808080000047
:102FF000203F210000203F20008098980000000022
:103000000020203F20200000000000809898000051
:1030100000C08080807F000008F800008080800071
:10302000203F24022D302000000808F80000000096
:103030000020203F20200000808080808080800051
:10304000203F20003F20003F8080008080800000E3
:10305000203F210000203F20000080808080000071
:10306000001F202020201F008080008080000000A2
:1030700080FFA12020110E000000008080808000D1
:10308000000E112020A0FF808080800080808000C2
:1030900020203F21200001000000808080808000EF
:1030A0000033242424241900008080E08080000064
:1030B0000000001F202000008080000000808000B1
:1030C000001F202020103F20808080000080808012
:1030D00000010E30080601008080008000808080A2
:1030E0000F300C030C300F000080800080808000C7
:1030F0000020312E0E3120008080800000808080F2
:1031000080818E70180601000080808080808000A1
:103110000021302C2221300000000000807C0202BF
:1031200000000000003F404000000000FF000000E1
:1031300000000000FF0000000002027C8000000090
:103140000040403F000000000006010102020404AC
:103150000000000000000000020304050607080943
:103160000A0B0C0D0E0F10100000000000000000F4
:10317000000000000102030406070809566F6C7482
:103180006167653A25642E253033645620000000BF
:1031900043757272656E743A25642E25303364412E
:1031A00020000000506F7765723A202025642E259C
:1031B0003033645720000000506F7765725F58000D
:1031C000232D302B2000686C4C0065666745464710
:1031D0000030313233343536373839414243444593
:1031E0004600303132333435363738396162636402
:0431F0006566000010
:0431F400310100089D
:0431F8000D010008BD
:1031FC0001000000100000000024F400100000206A
:10320C0000000000000000000000000000000000B2
:10321C0000000000000000000000000000000000A2
:10322C000000000000000000000000000000000092
:10323C000000000000000000000000000000000082
:10324C000000000000000000000000000000000072
:10325C000000000000000000000000000000000062
:0400000508002005CA
:00000001FF
